:020000040800F2
:1000000000500020C5010008C9010008CB0100080C
:10001000E1010008E3010008F90100080000000008
:100020000000000000000000000000000F020008B7
:10003000110200080000000013020008510500082A
:1000400029020008290200082902000829020008E4
:1000500029020008290200082902000829020008D4
:1000600029020008290200082902000829020008C4
:1000700029020008290200082902000829020008B4
:1000800029020008290200082902000829020008A4
:100090002902000829020008290200082902000894
:1000A0002902000829020008290200082902000884
:1000B0002902000829020008290200082902000874
:1000C0002902000829020008290200082902000864
:1000D0002902000829020008290200082902000854
:1000E0002902000829020008290200080000000077
:1000F0000000000000000000000000000000000000
:1001000000000000000000005FF808F107B500F0F3
:1001100011F9214A214B22498B4226D30021214B40
:10012000214A934226D300F011F901A9684600F054
:10013000F9F800251D4E1E4CA41BA410AC421CDC7B
:1001400000251C4E1C4CA41BA410AC421ADCDDE99B
:10015000000100F0FFF90646184D194C641BA4106D
:10016000002C14DC304600F0D9F852F8040F43F8A4
:10017000040BD1E743F8041BD3E756F82530984722
:100180000135DBE756F8253098470135DDE7013CBE
:1001900055F824309847E3E7940500080000002054
:1001A0001C0000201C000020240000205402000835
:1001B00054020008540200085402000854020008C7
:1001C0005402000814480047FEE71EF0040F0CBF5D
:1001D000EFF30880EFF309807146104A1047FEE7FD
:1001E000FEE71EF0040F0CBFEFF30880EFF3098069
:1001F00071460B4A1047FEE71EF0040F0CBFEFF3E9
:100200000880EFF309807146064A1047FEE7FEE7D3
:10021000FEE7FEE7704700000D010008DF0100085F
:0A022000F70100080D020008FEE7D8
:10022C0098050008000000201C000020980500081C
:10023C0000000000000000001C0000202400002032
:08024C000000000000000000AA
:10025400CA782DE9F041D30648BF8B780E8802F0A6
:100264000F0548BF1D4316F0FF0F1AD000214FF0B1
:10027400010C4FF00F0E03680CFA01F737EA06047D
:100284000BD18C000EFA04F823EA080305FA04F4EF
:10029400282A43EA040326D1476101310829EBD116
:1002A4000360FF2E1DD908244FF0010C4FF00F0EF0
:1002B40041680CFA04F737EA06030ED104F18043CF
:1002C400083B9B000EFA03F821EA080105FA03F340
:1002D400282A41EA03010AD147610134102CE8D1EC
:1002E4004160BDE8F081482A08BF0761D5E7482A84
:1002F40008BF0761F1E70161704741617047000081
:10030400044B9A6911B110439861704722EA0000C6
:10031400FAE700BF0010024008B500F017F800002B
:1003240001230360014B0B60704700BF00000020F5
:1003340008B500F01DF8024A024B9A6008BD00BFE0
:100344000000000800ED00E000F08AB8BFF34F8F12
:100354000549064BCA6802F4E0621343CB60BFF35D
:100364004F8F00BFFDE700BF00ED00E00400FA0579
:10037400374B82B01A6842F001021A605968354A54
:100384000A405A601A6822F0847222F480321A6099
:100394001A6822F480221A605A6822F4FE025A6013
:1003A4004FF41F029A600022009201921A6842F4EC
:1003B40080321A601A6802F400320192009A013203
:1003C4000092019A1AB9009AB2F5A06FF2D11A6894
:1003D40012F4003218BF01220192019A012A30D18D
:1003E4001D4A116841F010011160116821F00301E8
:1003F4001160116841F0020111605A685A605A682C
:100404005A605A6842F480625A605A6822F47C1234
:100414005A605A6842F4E8125A601A6842F08072CC
:100424001A601A689201FCD55A6822F003025A60D5
:100434005A6842F002025A605A6802F00C02082A12
:10044400FAD14FF00062054B9A6002B0704700BFCA
:10045400001002400000FFF80020024000ED00E020
:10046400104B11495A6802F00C02082A0AD00F4AAC
:100474000A605B680E4AC3F30313D25C0B68D34073
:100484000B6070475A685868C2F38342C00302F194
:10049400020202D407484243EAE758688003F9D4C9
:1004A4000248F8E7001002401800002000127A0009
:1004B4000800002000093D0037B501211020FFF796
:1004C4001FFF03234FF400558DF806301023074C0B
:1004D40001A920468DF80730ADF80450FFF7B8FEA7
:1004E40029462046FFF707FF03B030BD0010014046
:1004F4004FF47A72094B1B68B3FBF2F3013BB3F17F
:10050400807F09D2F021064A5360064B83F82310FA
:100514000023936007231360704700BF1800002076
:1005240010E000E000ED00E0024B18601A68002AB9
:10053400FCD1704720000020034B1A6812B11A68DE
:10054400013A1A60704700BF20000020FFF7F4BF93
:1005540070B5FFF7CDFF0024FFF7AEFF40F2EE26A3
:100564000B4D28464FF40051FFF7C7FE002C14BF73
:1005740030464FF47A70FFF7D7FF4FF40051284606
:10058400FFF7B9FEFA20FFF7CFFF0134E9E700BF18
:040594000010014012
:100598001C00002000000000000000000000000017
:0C05A800010203040607080900A24A042F
:040000050800010DE1
:00000001FF
